:1000000006308A004B2E0000443084008313000821
:10001000031918280130F800F701F70B0D28F80B29
:100020000C284A30F700F70B13281628800B0A28F3
:1000300008004B0EF039F7000F30060577048600F4
:10004000000006142328061008000608F700060E14
:100050000F39F80008008316061086100611831267
:1000600086100F3083160605F038860083120615B9
:1000700000000614000025207808CB0006100000C0
:100080000614000025207808CA0006100F308316D9
:100090000605860083124B0EF700F030F70577084F
:1000A0004A04F8007808CA00CA1B3128481C861088
:1000B000481886140000061100000610490ECA00F8
:1000C0000F30CA054A08CB00192049080F39CA0069
:1000D000CB00192008002830B3000C30B4000130E8
:1000E000B5000630B6000610861006110F308316D4
:1000F000060586000610861006110F308312C40014
:1001000004200130B2003208033C031C8F28033066
:10011000CB0019200530C4000420B20A8328023025
:10012000CB0019200530C4000420B2013208033C82
:10013000031CA62833303207840083130008B7005D
:10014000C8013708C9002B20B20A96288A110A1262
:100150006B2E0830F8000C30F700F70BAD280710B5
:1001600020102008831687000B30F700F70BB62805
:100170008312BE0D8710031CC328A0142008831609
:100180008700C7288312A01020088316870000006C
:10019000831220142008831687008312071CCE28A0
:1001A000F80BAB280C30F700F70BD4280710201001
:1001B00020088316870000008312A01420088316ED
:1001C00087000B30F700F70BE3280B30F700F70B35
:1001D000E728831220142008831687008312071C47
:1001E000EF28F8010B30F700F70BF4288718781484
:1001F0000710201020088316870083128710A01094
:10020000200883168700831208000830BF00770893
:10021000C000A0142008831687000B30F700F70BEE
:100220000F29831220142008831687008312071CCD
:10023000172987180314871C0310F80D0C30F700DA
:10024000F70B20292010200883168700831207103F
:10025000BF0B0929A0142008831687000B30F70074
:10026000F70B302983128710400803193C29A0108E
:1002700020088316870083120000201420088316AC
:1002800087008312071C42290C30F700F70B462920
:10029000071020102008831687000B30F700F70B9B
:1002A0004F2983128710A01020088316870083121D
:1002B00008008E30F7003F08F8003E08F900FA0108
:1002C000F808031D6D297908F800F9010830F702D4
:1002D000F808031D6D29F70175290310F81B74290F
:1002E000F90DF80DF7036D29F8130800A014200884
:1002F000831687000C30F700F70B7C29831220143B
:100300002008831687000B30F700F70B852983122E
:100310008710A0102008831687000C30F700F70B19
:100320008F29831207102010200883168700903031
:100330008312BE00A9202230BE00A920A0102008F0
:10034000831687000000831220142008831687007C
:100350008312071CA9290C30F700F70BAD29B0292F
:100360000000A0142008831687000C30F700F70B5C
:10037000B7298312A0142008831687000C30F700D9
:10038000F70BC029831220142008831687000B3036
:10039000F700F70BC92983128710A01020088316D5
:1003A00087000C30F700F70BD329831207102010B9
:1003B00020088316870090308312BE00A920EE30FB
:1003C000BE00A920A0102008831687000000831219
:1003D00020142008831687008312071CED290C3097
:1003E000F700F70BF129F4290000A0142008831668
:1003F00087000C30F700F70BFB298312A0142008AC
:10040000831687000C30F700F70B042A83122014A0
:100410002008831687000B30F700F70B0D2A831294
:100420008710A0102008831687000C30F700F70B08
:10043000172A831207102010200883168700903097
:100440008312BE00A920AA30BE00A920A014200853
:10045000831687000C30F700F70B2C2A8312201428
:100460002008831687000B30F700F70B352A83121C
:10047000071C382A8710A0102008831687000C302C
:10048000F700F70B412A831207102010200883166B
:10049000870091308312BE00A920F701052178085A
:1004A000BF01BE0059217A08B5007908B400780868
:1004B000B3007708B200A0142008831687000C3020
:1004C000F700F70B612A8312201420088316870097
:1004D0000B30F700F70B6A2A8312071C6D2A87106E
:1004E000A0102008831687000C30F700F70B762A3F
:1004F0008312071020102008831687009130831282
:10050000BE00A920F70105217808BF01BE005921CE
:100510007A08B9007908B8007808B7007708B600FB
:100520003908C1003808C0003708BF003608BE00CF
:10053000C501C401C3018630C2003F08C60043089C
:10054000C606C61FA82A03110310BF1B0314DB2A0B
:100550003F08C6004208C7003E08C7020319B62A72
:10056000C61FDB2A0308013A8300DB2A4308C700C1
:100570003F08C7020319C22AC61FDB2A0308013A33
:100580008300DB2A4408C7004008C7020319CE2AAB
:10059000C61FDB2A0308013A8300DB2A4508C7008F
:1005A0004108C7020319DA2AC61FDB2A0308013AE9
:1005B0008300DB2A0310031D342C83103508C1008F
:1005C0003408C0003308BF003208BE00C501C401B2
:1005D000C3017E30C20080308318C306C801C90140
:1005E0003F08C7004308C7063E080319DB2BC600B7
:1005F000F70042080319E42BC6020319802B031CE1
:100600003E2B4308CC00CC174408CB004508CA0059
:10061000C9010310CC0CCB0CCA0CC90CC60B082B9F
:10062000C71F152B4814F82B4810461048164130A8
:10063000840083130D2C4812C71B282B461C332B18
:10064000CC0CCB0CCA0CC90CF70A0319F32B332BB7
:10065000CC1B362B0310C90DCA0DCB0DCC0DF703E7
:100660000319F32B282B4817A02B48133F08C7006A
:10067000C71F3C2BCC17EC2BCC13EC2B4208C6002D
:10068000F7003E08C6023F08CC00CC174008CB005C
:100690004108CA00C9010310CC0CCB0CCA0CC90C10
:1006A000C60B4A2BC71F572BC814F82BC81046106F
:1006B000C8164530840083130D2CC812C71B6A2B43
:1006C000461C752BCC0CCB0CCA0CC90CF70A0319B1
:1006D000F32B752BCC1B782B0310C90DCA0DCB0D3A
:1006E000CC0DF7030319F32B6A2BC817A02BC813E3
:1006F0004308C700C71F7E2BCC17EC2BCC13EC2B69
:100700004308CC00CC174408CB004508CA00C71FDB
:100710008D2BCC134815F82B4811C90146104130D8
:10072000840083130D2CC71BB62B3F08C700461C43
:10073000A02BCC0CCB0CCA0CC90CF70A0319F32B59
:10074000C91FB12BCA0A031DB12BCB0A031DB12B44
:10075000CC0A031DB12BCC0CCB0CCA0CF70A031925
:10076000F32B481B352BC81B772BD52B8030CC06A1
:10077000CC1FBE2BF82B4308C700CB2B3F08C7006C
:10078000CC08031DCB2BCB08031DCB2BCA08031DA4
:10079000CB2BF701EC2BCC1BD52B0310C90DCA0DAD
:1007A000CB0DCC0DF70BCB2BF32BC71FD92BCC17B5
:1007B000EC2BCC13EC2B4208F7004308CC00440888
:1007C000CB004508CA00EC2B3E08F7003F08CC00E0
:1007D0004008CB004108CA004C08F8004B08F9005B
:1007E0004A08FA002B2CF701F801F901FA012B2C29
:1007F000C901CA09CB09CC09C909C90A031D062CBC
:10080000CA0A031D062CCB0A0319CC0A4818142B5C
:10081000C818562B48198C2BBB2B0008CA07031C81
:10082000172CCB0A031D172CCC0A0319461484037A
:100830000008CB07031C1F2CCC0A031946148403A1
:100840000008801F803ACC0703184614481A1B2B57
:10085000C81A5D2B932B7A08BD007908BC00780874
:10086000BB007708BA003C2C3508BD003408BC003A
:100870003308BB003208BA002230BE00A920A01005
:100880002008831687000000831220142008831696
:1008900087008312071C4A2C0C30F700F70B4E2CF4
:1008A000512C0000A0142008831687000C30F7009C
:1008B000F70B582C0B308312C40004203A08F700C1
:1008C0003B08F8003C08F9003D08FA008A110A12BA
:1008D0006F2E450B6C2C6F2C4030C600702CC6015F
:1008E00001304402C60746088038C700C8014708DF
:1008F000C9002B2008004308073A0319892C0B3A3A
:1009000003198E2C063A0319962C023A03199C2CD3
:10091000A12C0130C400C5006924A62CC8010130F7
:10092000C9002B200230C4000420A62C0130C400D2
:100930000230C5006924A62CC8011030C9002B2044
:10094000A62C0130C8004308C9002B2008008318DA
:10095000AC2C4B3084008313F701F801F901FA0144
:10096000CB01CC01CD01CE014A084904480447041B
:100970000319EA2C2030CF000310C30DC40DC50DA0
:10098000C60DCB0DCC0DCD0DCE0D4A084E02031D6C
:10099000D32C49084D02031DD32C48084C02031DDB
:1009A000D32C47084B02031CE42C4708CB02480811
:1009B000031C480FCC024908031C490FCD024A080A
:1009C000031C4A0FCE020314F70DF80DF90DFA0DB2
:1009D000CF0BBC2C4B088000840A4C088000840A92
:1009E0004D088000840A4E08800008000408BB00FF
:1009F0003A08BD000319882D3908C6003808C5001B
:100A00003708C4003608C300CA01C9012030C80035
:100A10008230C700430803197A2DCB004708031919
:100A20007A2DCB0703181B2D7F30CB02031C7A2DA8
:100A300003197A2D1F2D8130CB0703187A2D4B080F
:100A4000F700F801F901FA014408CF00CF17450873
:100A5000CE004608CD001830CB00CC014D1C482DEF
:100A60004A08FA07031C3A2DF90A031D3A2DF80A21
:100A70000319CC174908F907031C412DF80A03197B
:100A8000CC174808C500C5174508F8070318CC1748
:100A9000CC0DF80CF90CFA0CCF0CCE0CCD0C0310CD
:100AA000CB0B2D2D0130F70703187A2DF81B5F2D86
:100AB000CF0DFA0DF90DF80DF70303197A2DCF1F9D
:100AC000702DFA0A031D702DF90A031D702DF80A06
:100AD000031D702DF80CF90CFA0CF70A03197A2D86
:100AE0004408CC004808CC06CC1F782DF8177E2D82
:100AF000F8137E2DF701F801F901FA017A08B9001F
:100B00007908B8007808B7007708B600BD0BFC2C50
:100B10003908C6003808C5003708C4003608C300C5
:100B20004308B63CC300FA014408C700C4170310C9
:100B3000C40CC50CC60CFA0CF90CF80CF70CC30B62
:100B4000972DC71FAE2DF709F809F909FA09F70A19
:100B50000319F80A0319F90A0319FA0A7A08B900FD
:100B60007908B8007808B7007708B600B91FC52D16
:100B7000BB03BB16B609B709B809B909B60A031908
:100B8000B70A0319B80A0319B90A3B30C2009A30F0
:100B9000C100CA30C000BF010A30BD003A080319C5
:100BA000BB0A83143630840083133908C600380822
:100BB000C5003708C4003608C3004208CA0041080F
:100BC000C9004008C8003F08C700A7247808F708F4
:100BD000031DFD2D3A0A3D020319FD2D3B080319A3
:100BE000FF2D0F393D020319F72D03182F2EBB1BC4
:100BF0002F2E3B1BFF2D20302B2E2030BB05BB1E84
:100C00000D2EBB123A08031DBB037708BB002D3025
:100C1000C3007B243B08F700BB013A083D02031DDB
:100C20001B2E7708BB002E30C3007B243B08F70047
:100C30002030BB0500303030BB1E2B2EBB123A08D3
:100C4000031DBB037708BB002D30C3007B243B088A
:100C5000F700BB013030F7077708C3007B2483100F
:100C60004208C6004108C5004008C4003F08C30050
:100C7000CA01C901C8010A30C700A7247A08C20006
:100C80007908C1007808C0007708BF00BD0BD12DDE
:100C90008A110A12872E03081F398300FF30A00033
:100CA00083161F149F141F159F1107309C00831378
:100CB0000912831290010030F80092000030831670
:100CC00092001F149F141F159F1183121F10F030E4
:100CD00097059D056B280530C400042076297A0805
:100CE000B5007908B4007808B3007708B2000C307A
:100CF000C3007B24893084003508B9003408B8006B
:100D00003308B7003208B6000230BA00F62C0230C1
:100D1000B200FA30C4000420B20B892E6E2E63009C
:02400E00313F40
:00000001FF
;PIC16F877A
;CRC=A93F  CREATED="13-Dec-20 22:06"
