:1000000000308A0064280000213084008313000837
:10001000031918280130F800F701F70B0D28F80B29
:100020000C284A30F700F70B13281628800B0A28F3
:10003000080088018815081C22281430A10004201B
:100040000130A000881C29281430A10004200230AF
:10005000A000081D30281430A10004200330A000A7
:1000600088110816081C39281430A1000420043017
:10007000A000881C40281430A10004200530A000F6
:10008000081D47281430A10004200630A0000812E3
:100090008816081C50281430A10004200730A00046
:1000A000881C57281430A10004200830A000081D27
:1000B0005E281430A10004200930A0008812200816
:1000C000F8008A110A128A2803081F398300A00148
:1000D00083161F149F141F159F1107309C00831354
:1000E0000912831290010030F8009200003083164C
:1000F00092001F149F141F159F1183121F10F030C0
:1001000097059D050030831686000730880083120E
:0C01100086011928780886008928630001
:02400E00313F40
:00000001FF
;PIC16F877A
;CRC=83D2  CREATED="11-Dec-20 15:14"
