:1000000000308A002B280000F701F80122080310B5
:100010002318F707F70CF80CA318F707F70CF80CE0
:100020002319F707F70CF80CA319F707F70CF80CCE
:10003000231AF707F70CF80CA31AF707F70CF80CBC
:10004000231BF707F70CF80CA31BF707F70CF80CAA
:100050008A110A126A2803081F3983000530A0009C
:10006000FF30A10083161F149F141F159F11073026
:100070009C00831309128312900183161F149F148E
:100080001F159F1183121F10033083168500003047
:1000900087008312A1002111210883168700831293
:1000A00007110C309700A1102108831687008312D6
:1000B00087100C309D002030F80006389200783010
:1000C000831692008312200895002008A2000A30AF
:0C00D000A300042878089B006C28630043
:02400E00313F40
:00000001FF
;PIC16F877A
;CRC=1360  CREATED="14-Dec-20 10:58"
