:1000000000308A001928000026308400831300087D
:10001000031918280130F800F701F70B0D28F80B29
:100020000C284A30F700F70B13281628800B0A28F3
:10003000080003081F398300A4019030A50083162F
:100040001F149F141F159F1107309C008313093044
:100050008312A0000C30A1000630A2000330A300E0
:1000600083160912831290010030F80092000030CC
:10007000831692001F149F141F159F1183121F10C7
:10008000F03097059D05003083168600033085000B
:1000900083128601831605148312051C65282030FF
:1000A0002407840083130008A60086008316051425
:1000B0008312051856282508A60004202408033CAE
:1000C000031D6428FF30A400A40A8316851483123C
:1000D000851C7F28A408031D6F280430A400A403F6
:1000E00020302407840083130008A60086008316AE
:1000F00085148312851877282508A60004204A282D
:0201000063009A
:02400E00313F40
:00000001FF
;PIC16F877A
;CRC=757E  CREATED="13-Dec-20 15:13"
