:1000000005308A000B2D00000A108A100A110B3EE1
:1000100003188A0A820000340034003400340034AB
:10002000003400345F3400340034003403340034CE
:100030000334003414343E3414343E341434243441
:100040002A347F342A341234433433340834663447
:100050006134363449345534223450340034053454
:1000600003340034003400341C342234413400346E
:100070000034413422341C340034143408343E3407
:1000800008341434083408343E3408340834003456
:100090005034303400340034083408340834083420
:1000A00008340034603460340034003420341034B8
:1000B0000834043402343E345134493445343E3437
:1000C0000034043402347F34003442346134513417
:1000D00049344634223441344934493436341834AE
:1000E000143412347F3410342734453445344534C5
:1000F00039343E34493449344934323401340134DA
:100100007134093407343634493449344934363487
:1001100026344934493449343E3400343634363494
:10012000003400340034563436340034003408349B
:100130001434223441340034143414341434143458
:100140001434003441342234143408340234013479
:100150005134093406343E344134593455345E3414
:100160007E340934093409347E347F3449344934C7
:10017000493436343E3441344134413422347F34BE
:100180004134413441343E347F3449344934493474
:1001900041347F3409340934093401343E34413464
:1001A000413449343A347F340834083408347F34D5
:1001B000003441347F3441340034303440344034EE
:1001C00040343F347F3408341434223441347F3493
:1001D00040344034403440347F3402340C340234F0
:1001E0007F347F340234043408347F343E34413465
:1001F000413441343E347F340934093409340634FF
:100200001E342134213421345E347F3409340934DE
:10021000093476340A148A100A11820726344934C4
:10022000493449343234013401347F3401340134E7
:100230003F344034403440343F341F342034403461
:1002400020341F347F342034103420347F34413440
:1002500022341C34223441340734083470340834D6
:1002600007346134513449344534433400347F34E5
:10027000413400340034023404340834103420345F
:100280000034003441347F34003404340234013407
:100290000234043440344034403440344034003478
:1002A000013402340434003420345434543454348B
:1002B00078347F3444344434443438343834443427
:1002C00044344434443438344434443444347F343F
:1002D00038345434543454341834043404347E34AC
:1002E0000534053408345434543454343C347F34A5
:1002F0000834043404347834003444347D344034D5
:1003000000342034403444343D3400347F341034DD
:10031000283444340034003441347F3440340034D1
:100320007C3404347834043478347C340834043431
:1003300004347834383444344434443438347C34E9
:100340001434143414340834083414341434143485
:100350007C3400347C340834043404344834543459
:10036000543454342034043404343F344434443456
:100370003C344034403420347C341C342034403409
:1003800020341C343C344034303440343C34443425
:1003900028341034283444340C345034503450341D
:1003A0003C344434643454344C34443400340834DD
:1003B000363441344134003400347F340034003466
:1003C00041344134363408340034023401340234C8
:1003D0000434023400308316880006128312061299
:1003E000CD080319F8298316861083128614FC2978
:1003F00083160610831206140000831688018312E8
:100400004E088800000083168612831286160000AC
:100410008316861283128612831606108312061024
:1004200083168610831286100800F701F80146082B
:1004300003104718F707F70CF80CC718F707F70C65
:10044000F80C4719F707F70CF80CC719F707F70C62
:10045000F80C471AF707F70CF80CC71AF707F70C50
:10046000F80C471BF707F70CF80CC71BF707F70C3E
:10047000F80C080020102008831687008312071448
:1004800083168612831286128316061083120610B4
:1004900083168610831286108316061183120611A6
:1004A000CD01C030CE00EA210130CD00C030CE00F9
:1004B000EA21CD014030CE00EA210130CD004030AC
:1004C000CE00EA21CD01B830CE00EA210130CD00C6
:1004D000B830CE00EA21350B772ACD013F30CE006F
:1004E000EA210130CD003F30CE00EA21802ACD0143
:1004F0003E30CE00EA210130CD003E30CE00EA2170
:10050000B601B7013708073C031CC62A831606113B
:1005100083120611CD014030CE00EA210130CD001A
:100520004030CE00EA213708B838B900CD0139088B
:10053000CE00EA213708B838B9000130CD003908BB
:10054000CE00EA218316061183120615B801380879
:100550003F3C031CC42AFF30C6003608C7001522E2
:100560007808B900CD017808CE00EA21FF30C60036
:100570003608C70015227808B9000130CD00780888
:10058000CE00EA21B80AA72AB70A822A0800FF305B
:1005900083168800061283120616CC080319D52A82
:1005A0008316861083128614D92A831606108312A6
:1005B0000614000083168612831286160000FF3090
:1005C0008316880083120808CD00831686128312D2
:1005D0008612831606108312061083168610831265
:1005E00086104D08F80008004A1046083F3C0318E2
:1005F000FC2A4030C6024A148316061183120611E3
:10060000C613461700304A180130CB00CD0046080B
:10061000CE00EA2100304A180130CB00470CF70029
:10062000F70CF70C1F30F7057708BF39B838CC0046
:100630004B08CD004C08CE00EA2183160611831228
:10064000061500304A180130CB00CC00C72200301C
:100650004A180130CB00CC00C7227808C900480BEB
:10066000412B47080739CB000130F7004B08F80051
:1006700003193E2B0310F70DF80B3A2B7708C9042A
:10068000512B47080739CB000130F7004B08F80021
:1006900003194E2B0310F70DF80B4A2B7708FF3A7E
:1006A000C905831606118312061100304A1801305D
:1006B000CB00CD004608CE00EA2183160611831236
:1006C000061500304A180130CB00CD004908CE0095
:1006D000EA2108003808FA003708840083137A18E2
:1006E0008317800803193F2C3808FA003708840064
:1006F00083137A1883170008523C031C9D2B38087B
:10070000FA003708840083137A1883172030000218
:10071000C500C6000530C70015227808C400F800DF
:100720000530F7003F3084008313780804208000F0
:10073000F80A840AF70B952BCB2B3808FA003708F8
:10074000840083137A18831700087E3C031CC62B91
:100750003808FA003708840083137A188317533057
:100760000002C500C6000530C70015227808C40085
:10077000F8000530F7003F308400831378080A2121
:100780008000F80A840AF70BBE2BCB2BBF01C001F7
:10079000C101C201C3013808FA003708840083137D
:1007A0007A18831700080A3A0319DA2B073A031953
:1007B000E32BE52B0730C6003908C70015220130AE
:1007C0007807B6073A2CB5013A2C0530C60039082F
:1007D000C7001522780835077F3C0318F82BB501B0
:1007E0000730C6003908C700152201307807B60760
:1007F000BB013B08043C031C3A2CBC013C08063CF2
:10080000031C362C3F303B07840083130008C400D0
:10081000F7003C08F8000319112C0310F70CF80B33
:100820000D2C771C342CBD0139083D020318342CE3
:10083000BE0139083E020318322C3E083507C400B9
:100840003C08C6003908C7001522780836073D075E
:10085000C5004408C6004508C7003A08C800F4228D
:10086000BE0A192CBD0A142CBC0AFE2BBB0A39087F
:10087000B507F92BB70A0319B80AB50A6A2B08009D
:1008800036308400831300080319542C0130F8001B
:10089000F701F70B492CF80B482C4A30F700F70BFF
:1008A0004F2C522C800B462C08000130BE00BF009C
:1008B000C40135083702C5004508C51F612C45082D
:1008C000003CFA01BC007A08BD0036083802C500B9
:1008D0004508C51F6D2C4508003CFA01BA007A088E
:1008E000BB00350837020318772CFF30BE003608EE
:1008F000380203187D2CFF30BF003B083D02031C6B
:10090000C92C031D872C3A083C02031CC92C031078
:10091000BA0DBB0D3C083A02F7003B08FA003D084F
:10092000031C3D0FFA027708C0007A08C1003C089A
:100930004002C2004108C3003D08031C3D0FC30232
:10094000BD08031DA72C44083C02031CC82C350815
:10095000C6003608C7003908C800F422C11FBA2CE7
:100960003A08C0073B0803183B0FC1073E0835078C
:10097000B500C62C4208C00743080318430FC1073F
:100980003E083507B5003F083607B600C40AA02C5C
:100990000A2D0310BC0DBD0D3A083C02F7003D08BE
:1009A000FA003B08031C3B0FFA027708C0007A08E4
:1009B000C1003A084002C2004108C3003B08031CC2
:1009C0003B0FC302BB08031DE92C44083A02031C79
:1009D0000A2D3508C6003608C7003908C800F422B9
:1009E000C11FFC2C3C08C0073D0803183D0FC10780
:1009F0003F083607B600082D4208C0074308031811
:100A0000430FC1073E083507B5003F083607B6005B
:100A1000C40AE22C080003081F398300FF30A0003D
:100A200083161F149F141F159F1107309C008313FA
:100A30004B308312A1005330A2005530A300A40113
:100A4000A5006E30A6006930A7007630A80065309A
:100A5000A9007230AA007330AB006930AC0074306A
:100A6000AD007930AE00AF018316091283129001F8
:100A70000030F80092000030831692001F149F147B
:100A80001F159F1183121F10F03097059D0501302F
:100A9000B5003A220130B5003A222730B5000530C2
:100AA000B600B8012130B7000230B9000130BA00F9
:100AB0006A230530B5001E30B600B8012530B700F6
:100AC0000230B9000130BA006A230830B500FA30AC
:100AD000B6004024B50B672D0130B5003A22053031
:100AE000B500B6015030B700B8010130B900552447
:100AF0000530B5003230B6005030B7003230B800A3
:100B00000130B90055240830B500FA30B600402451
:100B1000B50B852D0130B5003A221430B6004024C3
:040B20004A2D6300F7
:02400E00313F40
:00000001FF
;PIC16F877A
;CRC=F367  CREATED="14-Dec-20 11:14"
