:1000000000308A0051280000FF00030E8301A10088
:100010000A08A0008A010408A2007708A300780853
:10002000A4007908A5007A08A600831383128C30F7
:100030008400001D1D280C1934288D308400001CFC
:1000400023280D183728220884002308F7002408E5
:10005000F8002508F9002608FA0020088A00210E79
:100060008300FF0E7F0E09008A110A123A288A11B6
:100070000A124528A70A27080A3C0319A7012708DE
:1000800086000C118A110A122328A708031D4A288A
:100090000130A700A703270886000D108A110A1255
:1000A000232803081F398300A70183161F149F14F8
:1000B0001F159F1107309C00831309120030F800B0
:1000C000831292000030831692001F149F141F1594
:1000D0009F1183121F10831686000730870083123A
:1000E000860183160C150D14C03083128B04970102
:1000F000053097009D019D00960195019C019B0193
:0401000080286300F0
:02400E00313F40
:00000001FF
;PIC16F877A
;CRC=E9DB  CREATED="14-Dec-20 11:04"
