:1000000000308A003C280000FF00030E8301A1009D
:100010000A08A0008A010408A2007708A300780853
:10002000A4007908A5007A08A600831383128B1E0A
:100030001B280B192C28220884002308F700240809
:10004000F8002508F9002608FA0020088A00210E89
:100050008300FF0E7F0E09008A110A122F283C3000
:10006000810027088600A70A2708093C0319A70171
:100070000B118A110A121B2803081F398300A801DB
:10008000FF30A90083161F149F141F159F110730FE
:100090009C0083130912831290010030F800920033
:1000A0000030831692001F149F141F159F11831296
:1000B0001F10F03097059D050030831686008800DC
:1000C000803087008312A90086018316880183127D
:1000D000880183160108C039073881003C3083123B
:1000E00081008B16C0308B04A9172908831687005E
:1000F0008312871F8C28A80A831688018312280878
:1001000088002808093C0319A801A91729088316A3
:0C01100087008312871B85287428630079
:02400E00313F40
:00000001FF
;PIC16F877A
;CRC=A524  CREATED="13-Dec-20 23:34"
