:1000000000308A001B280000213084008313000880
:10001000031918280130F800F701F70B0D28F80B29
:100020000C284A30F700F70B13281628800B0A28F3
:100030008A110A124D2803081F39830020108316E5
:100040001F149F141F159F1107309C008313091262
:10005000831290010030F800920000308316920065
:100060001F149F141F159F1183121F10F030970546
:100070009D05003083168600FF30880083128601BC
:100080002010881B2014201C49280614881B462891
:0E0090004A2806103230A100042840286300E0
:02400E00313F40
:00000001FF
;PIC16F877A
;CRC=2B11  CREATED="13-Dec-20 23:16"
