:1000000000308A00732800003E08F83E03182928B3
:10001000083E2C288030F800292829284030F80094
:10002000292829282030F800292829281030F8000C
:10003000292829280830F800292829280430F80020
:10004000292829280230F800292829280130F80019
:1000500029288A110A124B280A108A100A118207CD
:100060000A280E28122816281A281E282228262890
:100070000130BB003A083B0203187228BC013C085F
:10008000093C031C7028BD013D08073C031C6E2879
:100090003D08BE000428780888003D083807840021
:1000A0008313391883170008BE0086000130BE0094
:1000B0003E3084008313000803196C280130F800D7
:1000C000F701F70B6128F80B60284A30F700F70BAF
:1000D00067286A28800B5E28BD0A4428BC0A3F288E
:1000E000BB0A3A28080003081F39830083161F142F
:1000F0009F141F159F1107309C008313FF3083123C
:10010000A0008630A1007F30A200A300A4008630AA
:10011000A500FF30A600A700A800A9017730AA001B
:10012000AB008F30AC00FF30AD00AE00AF00B000D0
:100130001730B1005730B200B3000F30B400FF30B9
:10014000B500B600B7008316091283129001003083
:10015000F80092000030831692001F149F141F15A0
:100160009F1183121F10F03097059D0500308316F4
:1001700086008800831286018801B9012030B8000A
:100180001430BA003820B9012830B8001430BA0051
:100190003820B9013030B8001430BA003820BD28FA
:0201A0006300FA
:02400E00313F40
:00000001FF
;PIC16F877A
;CRC=91AE  CREATED="08-Dec-20 16:50"
