:1000000000308A007B280000C7327410B116380017
:100010000B08A1008B13831603178C170C14000018
:10002000000083120313A11B8B1703170C087F39E1
:1000300003195E280313A10003170D080313A20080
:1000400003170F080313A30021080C1E252899008D
:10005000220803178D000313230803178F000313CF
:100060000B08A4008B13831603178C170C140000C5
:10007000000083120313A41B8B1703170C0D0E0D26
:100080007F3903195E280313A10003170D0803131A
:10009000A20003170F080313A30021080C1E4E280B
:1000A0009900220803178D000313230803178F00FC
:1000B0008D0A03198F0A03130828031703138A11E3
:1000C0000A12A628800803197828A2010408A100B2
:1000D0002210831B221400080C1E6C289900210892
:1000E0008400831322188317840A0319850A62285F
:1000F0008A110A12B02803081F39830019308316A9
:100100009900A630980090308312980083161F142F
:100110009F141F159F1107309C0083130912003094
:10012000F800831292000030831692001F149F146F
:100130001F159F1183121F10F03097059D05043085
:1001400003178D0000308F00031308288C1EA6288B
:100150001A08A0002008840083132118831762283E
:0C01600020080C1EB1289900B428630090
:02400E00713F00
:00000001FF
;PIC16F877A
;CRC=22EA  CREATED="14-Dec-20 13:50"
