:1000000000308A0055280000FF00030E8301A10084
:100010000A08A0008A010408A2007708A300780853
:10002000A4007908A5007A08A600831383128B1E0A
:100030001B280B192C28220884002308F700240809
:10004000F8002508F9002608FA0020088A00210E89
:100050008300FF0E7F0E09008A110A122F283C3000
:100060008100A70A2708323C031906142708643CBC
:10007000031D3C280610A7010B118A110A121B2828
:100080002930840083130008031954280130F80034
:10009000F701F70B4928F80B48284A30F700F70B0F
:1000A0004F285228800B4628080003081F39830078
:1000B000A701FF30A80083161F149F141F159F115E
:1000C00007309C0083130912831290010030F8005E
:1000D00092000030831692001F149F141F159F1169
:1000E00083121F10F03097059D050030831686009F
:1000F0008800803087008312A8008601831688015B
:100100008312880183160108C039073881003C300A
:10011000831281008B16C0308B0486143230A90004
:0E012000402086103230A90040208D28630058
:02400E00313F40
:00000001FF
;PIC16F877A
;CRC=E9D0  CREATED="14-Dec-20 00:40"
