:1000000001308A00F4290000333084008313000893
:10001000031917280230F800F701F70B0D28F80B29
:100020000C289730F700F70B1328800B0A280800DC
:10003000380EF039F7000F3006057704860000000F
:10004000061422282328061008000608F700060ECA
:100050000F39F80008008316061086100611831267
:1000600086100F3083160605F038860083120615B9
:1000700000000614000025207808B80006100000D3
:100080000614422825207808B70006100F30831682
:10009000060586008312380EF700F030F705770862
:1000A0003704F8007808B700B71B3128351C8610D4
:1000B000351886140000061100000610360EB70031
:1000C0000F30B7053708B800182036080F39B700C9
:1000D000B800182008002830AF000C30B000013004
:1000E000B1000630B2000610861006110F308316DC
:1000F000060586000610861006110F308312B30025
:1001000004200130AE002E08033C031C8F2803306E
:10011000B80018200530B3000420AE0A832802304E
:10012000B80018200530B3000420AE012E08033CAF
:10013000031CA6282F302E07840083130008B30069
:10014000B5013308B6002B20AE0A96288A110A1290
:10015000292A320BAC28AF284030B300B028B301B5
:1001600001303102B30733088038B400B5013408D8
:10017000B6002B2008003008073A0319C9280B3AAB
:100180000319CE28063A0319D628023A0319DC28A7
:10019000E1280130B100B200A920E628B501013004
:1001A000B6002B200230B3000420E6280130B10055
:1001B0000230B200A920E628B5011030B6002B208D
:1001C000E6280130B5003008B6002B2008008E303C
:1001D000F7003108F8003008F900FA01F808031DAB
:1001E000FB287908F800F9010830F702F808031D28
:1001F000FB28F70103290310F81B0229F90DF80D5C
:10020000F703FB28F8138A110A12422A300803194F
:100210007629B800340803197629B8070318172976
:100220007F30B802031C7629031976291B298130F7
:10023000B807031876293808F700F801F901FA0120
:100240003108BC00BC173208BB003308BA001830B4
:10025000B800B9013A1C44293708FA07031C3629AB
:10026000F90A031D3629F80A0319B9173608F907E0
:10027000031C3D29F80A0319B9173508B200B21753
:100280003208F8070318B917B90DF80CF90CFA0C75
:10029000BC0CBB0CBA0C0310B80B29290130F707B2
:1002A00003187629F81B5B29BC0DFA0DF90DF80D22
:1002B000F70303197629BC1F6C29FA0A031D6C2960
:1002C000F90A031D6C29F80A031D6C29F80CF90CB6
:1002D000FA0CF70A031976293108B9003508B9066E
:1002E000B91F7429F8177A29F8137A29F701F80148
:1002F000F901FA018A110A12532A8E30F7002E08EA
:10030000F7022F08F9003008F800F917F708031969
:1003100094290310F908031D9029F808031994295A
:10032000F90CF80CF70B8929AF1F9B29F809F9097B
:10033000F80A0319F90A8A110A125C2A31083306ED
:100340008039B500B11FA929B009B109B00A031954
:10035000B10AB31FB029B209B309B20A0319B30A2B
:10036000F801F901F701FA013308031DBA2932082F
:100370000319D4291030B4000310B00DB10DF70DDE
:10038000FA0D33087A02031DC72932087702031CCD
:10039000D0293208F702031CFA033308FA020314C7
:1003A000F80DF90DB40BBC29B51FDB29F809F909C3
:1003B000F80A0319F90A080080080319F129AF01A6
:1003C0000408AE002F10831B2F140008B000BB20C0
:1003D0002E08840083132F188317840A0319850AB3
:1003E000DC298A110A12B92A03081F3983008316EF
:1003F0001F149F141F159F1107309C008313543046
:100400008312A0006530A1006D30A2007030A300FF
:100410002030A4003D30A5002030A600A700A80091
:10042000A900AA00AB0183161F1383121F179F1781
:1004300083169F1783121F1483161F109F141F15F6
:100440009F150030F80083121F08C73978049F00F9
:100450006B280C30B000BB200430AE00FA30B30083
:100460000420AE0B2E2A1F151F19342A1E08FA006D
:1004700083161E088312AE001E08AF00B1002E08BE
:10048000B000E7287A08B3007908B2007808B10014
:100490007708B0003530B7005E30B6007A30B5006E
:1004A0007D30B40006297A08B1007908B0007808D8
:1004B000AF007708AE007D297908AD007808AC0060
:1004C0002D08B1002C08B000B3016430B2009E21A9
:1004D0007908AF007808AE007908B1007808B0005C
:1004E000B3010A30B2009E217A08AF00303077079E
:1004F000F8007A08FA000318FA0A7808A8002D080C
:10050000B1002C08B000B3010A30B2009E21790876
:10051000AF007808AE007908B1007808B000B301E8
:100520000A30B2009E217A08AF0030307707F80019
:100530007A08FA000318FA0A7808A9002D08B10011
:100540002C08B000B3010A30B2009E217A08AF0037
:1005500030307707F8007A08FA000318FA0A7808AA
:10056000AA000130B100B200A9202030840083131A
:06057000DC292C2A6300C7
:02400E00323F3F
:00000001FF
;PIC16F877A
;CRC=D69B  CREATED="14-Dec-20 17:23"
